{
  "_format": "hh-sol-artifact-1",
  "contractName": "EscrowERC20",
  "sourceName": "contracts/EscrowERC20.sol",
  "abi": [
    {
      "anonymous": false,
      "inputs": [
        {
          "indexed": true,
          "internalType": "uint256",
          "name": "escrowId",
          "type": "uint256"
        },
        {
          "indexed": true,
          "internalType": "uint256",
          "name": "challengeId",
          "type": "uint256"
        },
        {
          "indexed": true,
          "internalType": "address",
          "name": "creator",
          "type": "address"
        },
        {
          "indexed": false,
          "internalType": "address",
          "name": "token",
          "type": "address"
        },
        {
          "indexed": false,
          "internalType": "uint256",
          "name": "amount",
          "type": "uint256"
        }
      ],
      "name": "EscrowCreated",
      "type": "event"
    },
    {
      "anonymous": false,
      "inputs": [
        {
          "indexed": true,
          "internalType": "uint256",
          "name": "escrowId",
          "type": "uint256"
        },
        {
          "indexed": true,
          "internalType": "address",
          "name": "opponent",
          "type": "address"
        },
        {
          "indexed": false,
          "internalType": "uint256",
          "name": "amount",
          "type": "uint256"
        }
      ],
      "name": "EscrowMatched",
      "type": "event"
    },
    {
      "anonymous": false,
      "inputs": [
        {
          "indexed": true,
          "internalType": "uint256",
          "name": "escrowId",
          "type": "uint256"
        },
        {
          "indexed": true,
          "internalType": "address",
          "name": "winner",
          "type": "address"
        },
        {
          "indexed": false,
          "internalType": "uint256",
          "name": "amount",
          "type": "uint256"
        }
      ],
      "name": "EscrowSettled",
      "type": "event"
    },
    {
      "inputs": [
        {
          "internalType": "uint256",
          "name": "challengeId",
          "type": "uint256"
        },
        {
          "internalType": "address",
          "name": "token",
          "type": "address"
        },
        {
          "internalType": "uint256",
          "name": "amount",
          "type": "uint256"
        }
      ],
      "name": "createEscrowERC20",
      "outputs": [
        {
          "internalType": "uint256",
          "name": "",
          "type": "uint256"
        }
      ],
      "stateMutability": "nonpayable",
      "type": "function"
    },
    {
      "inputs": [
        {
          "internalType": "uint256",
          "name": "",
          "type": "uint256"
        }
      ],
      "name": "escrows",
      "outputs": [
        {
          "internalType": "uint256",
          "name": "id",
          "type": "uint256"
        },
        {
          "internalType": "uint256",
          "name": "challengeId",
          "type": "uint256"
        },
        {
          "internalType": "address",
          "name": "creator",
          "type": "address"
        },
        {
          "internalType": "address",
          "name": "opponent",
          "type": "address"
        },
        {
          "internalType": "address",
          "name": "token",
          "type": "address"
        },
        {
          "internalType": "uint256",
          "name": "amount",
          "type": "uint256"
        },
        {
          "internalType": "bool",
          "name": "matched",
          "type": "bool"
        },
        {
          "internalType": "bool",
          "name": "settled",
          "type": "bool"
        },
        {
          "internalType": "address",
          "name": "winner",
          "type": "address"
        }
      ],
      "stateMutability": "view",
      "type": "function"
    },
    {
      "inputs": [
        {
          "internalType": "uint256",
          "name": "escrowId",
          "type": "uint256"
        }
      ],
      "name": "getEscrow",
      "outputs": [
        {
          "components": [
            {
              "internalType": "uint256",
              "name": "id",
              "type": "uint256"
            },
            {
              "internalType": "uint256",
              "name": "challengeId",
              "type": "uint256"
            },
            {
              "internalType": "address",
              "name": "creator",
              "type": "address"
            },
            {
              "internalType": "address",
              "name": "opponent",
              "type": "address"
            },
            {
              "internalType": "address",
              "name": "token",
              "type": "address"
            },
            {
              "internalType": "uint256",
              "name": "amount",
              "type": "uint256"
            },
            {
              "internalType": "bool",
              "name": "matched",
              "type": "bool"
            },
            {
              "internalType": "bool",
              "name": "settled",
              "type": "bool"
            },
            {
              "internalType": "address",
              "name": "winner",
              "type": "address"
            }
          ],
          "internalType": "struct EscrowERC20.EscrowItem",
          "name": "",
          "type": "tuple"
        }
      ],
      "stateMutability": "view",
      "type": "function"
    },
    {
      "inputs": [
        {
          "internalType": "uint256",
          "name": "escrowId",
          "type": "uint256"
        }
      ],
      "name": "matchEscrowERC20",
      "outputs": [],
      "stateMutability": "nonpayable",
      "type": "function"
    },
    {
      "inputs": [],
      "name": "nextId",
      "outputs": [
        {
          "internalType": "uint256",
          "name": "",
          "type": "uint256"
        }
      ],
      "stateMutability": "view",
      "type": "function"
    },
    {
      "inputs": [
        {
          "internalType": "uint256",
          "name": "escrowId",
          "type": "uint256"
        },
        {
          "internalType": "address",
          "name": "winner",
          "type": "address"
        }
      ],
      "name": "settleEscrowERC20",
      "outputs": [],
      "stateMutability": "nonpayable",
      "type": "function"
    }
  ],
  "bytecode": "0x608060405234801561001057600080fd5b5061181c806100206000396000f3fe608060405234801561001057600080fd5b50600436106100625760003560e01c8063012f52ee1461006757806310dab5261461009f5780631add9097146100bb57806361b8ce8c146100eb5780637d19e59614610109578063d4a761f014610139575b600080fd5b610081600480360381019061007c9190610f98565b610155565b60405161009699989796959493929190611030565b60405180910390f35b6100b960048036038101906100b491906110e9565b61023d565b005b6100d560048036038101906100d09190611129565b610621565b6040516100e2919061117c565b60405180910390f35b6100f3610a3b565b604051610100919061117c565b60405180910390f35b610123600480360381019061011e9190610f98565b610a41565b604051610130919061127b565b60405180910390f35b610153600480360381019061014e9190610f98565b610c1b565b005b60016020528060005260406000206000915090508060000154908060010154908060020160009054906101000a900473ffffffffffffffffffffffffffffffffffffffff16908060030160009054906101000a900473ffffffffffffffffffffffffffffffffffffffff16908060040160009054906101000a900473ffffffffffffffffffffffffffffffffffffffff16908060050154908060060160009054906101000a900460ff16908060060160019054906101000a900460ff16908060060160029054906101000a900473ffffffffffffffffffffffffffffffffffffffff16905089565b6000600160008481526020019081526020016000209050600073ffffffffffffffffffffffffffffffffffffffff168160020160009054906101000a900473ffffffffffffffffffffffffffffffffffffffff1673ffffffffffffffffffffffffffffffffffffffff16036102e7576040517f08c379a00000000000000000000000000000000000000000000000000000000081526004016102de906112f4565b60405180910390fd5b8060060160009054906101000a900460ff16610338576040517f08c379a000000000000000000000000000000000000000000000000000000000815260040161032f90611360565b60405180910390fd5b8060060160019054906101000a900460ff161561038a576040517f08c379a0000000000000000000000000000000000000000000000000000000008152600401610381906113cc565b60405180910390fd5b8060020160009054906101000a900473ffffffffffffffffffffffffffffffffffffffff1673ffffffffffffffffffffffffffffffffffffffff168273ffffffffffffffffffffffffffffffffffffffff16148061043757508060030160009054906101000a900473ffffffffffffffffffffffffffffffffffffffff1673ffffffffffffffffffffffffffffffffffffffff168273ffffffffffffffffffffffffffffffffffffffff16145b610476576040517f08c379a000000000000000000000000000000000000000000000000000000000815260040161046d90611438565b60405180910390fd5b60018160060160016101000a81548160ff021916908315150217905550818160060160026101000a81548173ffffffffffffffffffffffffffffffffffffffff021916908373ffffffffffffffffffffffffffffffffffffffff1602179055506000600282600501546104e99190611487565b90508160040160009054906101000a900473ffffffffffffffffffffffffffffffffffffffff1673ffffffffffffffffffffffffffffffffffffffff1663a9059cbb84836040518363ffffffff1660e01b815260040161054a9291906114c9565b6020604051808303816000875af1158015610569573d6000803e3d6000fd5b505050506040513d601f19601f8201168201806040525081019061058d919061151e565b6105cc576040517f08c379a00000000000000000000000000000000000000000000000000000000081526004016105c390611597565b60405180910390fd5b8273ffffffffffffffffffffffffffffffffffffffff16847f75d64041e5ab24fa2e554df9a4ed761bdca9bac6591f16096b73954bb5038b3183604051610613919061117c565b60405180910390a350505050565b6000808211610665576040517f08c379a000000000000000000000000000000000000000000000000000000000815260040161065c90611603565b60405180910390fd5b600073ffffffffffffffffffffffffffffffffffffffff168373ffffffffffffffffffffffffffffffffffffffff16036106d4576040517f08c379a00000000000000000000000000000000000000000000000000000000081526004016106cb9061166f565b60405180910390fd5b8273ffffffffffffffffffffffffffffffffffffffff166323b872dd3330856040518463ffffffff1660e01b81526004016107119392919061168f565b6020604051808303816000875af1158015610730573d6000803e3d6000fd5b505050506040513d601f19601f82011682018060405250810190610754919061151e565b610793576040517f08c379a000000000000000000000000000000000000000000000000000000000815260040161078a90611712565b60405180910390fd5b60008060008154809291906107a790611732565b9190505590506040518061012001604052808281526020018681526020013373ffffffffffffffffffffffffffffffffffffffff168152602001600073ffffffffffffffffffffffffffffffffffffffff1681526020018573ffffffffffffffffffffffffffffffffffffffff168152602001848152602001600015158152602001600015158152602001600073ffffffffffffffffffffffffffffffffffffffff1681525060016000838152602001908152602001600020600082015181600001556020820151816001015560408201518160020160006101000a81548173ffffffffffffffffffffffffffffffffffffffff021916908373ffffffffffffffffffffffffffffffffffffffff16021790555060608201518160030160006101000a81548173ffffffffffffffffffffffffffffffffffffffff021916908373ffffffffffffffffffffffffffffffffffffffff16021790555060808201518160040160006101000a81548173ffffffffffffffffffffffffffffffffffffffff021916908373ffffffffffffffffffffffffffffffffffffffff16021790555060a0820151816005015560c08201518160060160006101000a81548160ff02191690831515021790555060e08201518160060160016101000a81548160ff0219169083151502179055506101008201518160060160026101000a81548173ffffffffffffffffffffffffffffffffffffffff021916908373ffffffffffffffffffffffffffffffffffffffff1602179055509050503373ffffffffffffffffffffffffffffffffffffffff1685827fa96863da5e2cb895c2d739ef4b0a2bf93464d7bb3a3bf098c0af12c1b404c43a8787604051610a289291906114c9565b60405180910390a4809150509392505050565b60005481565b610a49610eb5565b600160008381526020019081526020016000206040518061012001604052908160008201548152602001600182015481526020016002820160009054906101000a900473ffffffffffffffffffffffffffffffffffffffff1673ffffffffffffffffffffffffffffffffffffffff1673ffffffffffffffffffffffffffffffffffffffff1681526020016003820160009054906101000a900473ffffffffffffffffffffffffffffffffffffffff1673ffffffffffffffffffffffffffffffffffffffff1673ffffffffffffffffffffffffffffffffffffffff1681526020016004820160009054906101000a900473ffffffffffffffffffffffffffffffffffffffff1673ffffffffffffffffffffffffffffffffffffffff1673ffffffffffffffffffffffffffffffffffffffff168152602001600582015481526020016006820160009054906101000a900460ff161515151581526020016006820160019054906101000a900460ff161515151581526020016006820160029054906101000a900473ffffffffffffffffffffffffffffffffffffffff1673ffffffffffffffffffffffffffffffffffffffff1673ffffffffffffffffffffffffffffffffffffffff16815250509050919050565b6000600160008381526020019081526020016000209050600073ffffffffffffffffffffffffffffffffffffffff168160020160009054906101000a900473ffffffffffffffffffffffffffffffffffffffff1673ffffffffffffffffffffffffffffffffffffffff1603610cc5576040517f08c379a0000000000000000000000000000000000000000000000000000000008152600401610cbc906112f4565b60405180910390fd5b8060060160009054906101000a900460ff1615610d17576040517f08c379a0000000000000000000000000000000000000000000000000000000008152600401610d0e906117c6565b60405180910390fd5b8060040160009054906101000a900473ffffffffffffffffffffffffffffffffffffffff1673ffffffffffffffffffffffffffffffffffffffff166323b872dd333084600501546040518463ffffffff1660e01b8152600401610d7c9392919061168f565b6020604051808303816000875af1158015610d9b573d6000803e3d6000fd5b505050506040513d601f19601f82011682018060405250810190610dbf919061151e565b610dfe576040517f08c379a0000000000000000000000000000000000000000000000000000000008152600401610df590611712565b60405180910390fd5b338160030160006101000a81548173ffffffffffffffffffffffffffffffffffffffff021916908373ffffffffffffffffffffffffffffffffffffffff16021790555060018160060160006101000a81548160ff0219169083151502179055503373ffffffffffffffffffffffffffffffffffffffff16827f86160d8ad8cfa030ecbabcd2ca866d6e1220ca688341a57f9bea588010ddc8768360050154604051610ea9919061117c565b60405180910390a35050565b6040518061012001604052806000815260200160008152602001600073ffffffffffffffffffffffffffffffffffffffff168152602001600073ffffffffffffffffffffffffffffffffffffffff168152602001600073ffffffffffffffffffffffffffffffffffffffff16815260200160008152602001600015158152602001600015158152602001600073ffffffffffffffffffffffffffffffffffffffff1681525090565b600080fd5b6000819050919050565b610f7581610f62565b8114610f8057600080fd5b50565b600081359050610f9281610f6c565b92915050565b600060208284031215610fae57610fad610f5d565b5b6000610fbc84828501610f83565b91505092915050565b610fce81610f62565b82525050565b600073ffffffffffffffffffffffffffffffffffffffff82169050919050565b6000610fff82610fd4565b9050919050565b61100f81610ff4565b82525050565b60008115159050919050565b61102a81611015565b82525050565b600061012082019050611046600083018c610fc5565b611053602083018b610fc5565b611060604083018a611006565b61106d6060830189611006565b61107a6080830188611006565b61108760a0830187610fc5565b61109460c0830186611021565b6110a160e0830185611021565b6110af610100830184611006565b9a9950505050505050505050565b6110c681610ff4565b81146110d157600080fd5b50565b6000813590506110e3816110bd565b92915050565b60008060408385031215611100576110ff610f5d565b5b600061110e85828601610f83565b925050602061111f858286016110d4565b9150509250929050565b60008060006060848603121561114257611141610f5d565b5b600061115086828701610f83565b9350506020611161868287016110d4565b925050604061117286828701610f83565b9150509250925092565b60006020820190506111916000830184610fc5565b92915050565b6111a081610f62565b82525050565b6111af81610ff4565b82525050565b6111be81611015565b82525050565b610120820160008201516111db6000850182611197565b5060208201516111ee6020850182611197565b50604082015161120160408501826111a6565b50606082015161121460608501826111a6565b50608082015161122760808501826111a6565b5060a082015161123a60a0850182611197565b5060c082015161124d60c08501826111b5565b5060e082015161126060e08501826111b5565b506101008201516112756101008501826111a6565b50505050565b60006101208201905061129160008301846111c4565b92915050565b600082825260208201905092915050565b7f457363726f77206e6f7420666f756e6400000000000000000000000000000000600082015250565b60006112de601083611297565b91506112e9826112a8565b602082019050919050565b6000602082019050818103600083015261130d816112d1565b9050919050565b7f4e6f74206d617463686564000000000000000000000000000000000000000000600082015250565b600061134a600b83611297565b915061135582611314565b602082019050919050565b600060208201905081810360008301526113798161133d565b9050919050565b7f416c726561647920736574746c65640000000000000000000000000000000000600082015250565b60006113b6600f83611297565b91506113c182611380565b602082019050919050565b600060208201905081810360008301526113e5816113a9565b9050919050565b7f57696e6e6572206d757374206265207061727469636970616e74000000000000600082015250565b6000611422601a83611297565b915061142d826113ec565b602082019050919050565b6000602082019050818103600083015261145181611415565b9050919050565b7f4e487b7100000000000000000000000000000000000000000000000000000000600052601160045260246000fd5b600061149282610f62565b915061149d83610f62565b92508282026114ab81610f62565b915082820484148315176114c2576114c1611458565b5b5092915050565b60006040820190506114de6000830185611006565b6114eb6020830184610fc5565b9392505050565b6114fb81611015565b811461150657600080fd5b50565b600081519050611518816114f2565b92915050565b60006020828403121561153457611533610f5d565b5b600061154284828501611509565b91505092915050565b7f7472616e73666572206661696c65640000000000000000000000000000000000600082015250565b6000611581600f83611297565b915061158c8261154b565b602082019050919050565b600060208201905081810360008301526115b081611574565b9050919050565b7f416d6f756e74206d757374206265203e20300000000000000000000000000000600082015250565b60006115ed601283611297565b91506115f8826115b7565b602082019050919050565b6000602082019050818103600083015261161c816115e0565b9050919050565b7f546f6b656e206d75737420626520736574000000000000000000000000000000600082015250565b6000611659601183611297565b915061166482611623565b602082019050919050565b600060208201905081810360008301526116888161164c565b9050919050565b60006060820190506116a46000830186611006565b6116b16020830185611006565b6116be6040830184610fc5565b949350505050565b7f7472616e7366657246726f6d206661696c656400000000000000000000000000600082015250565b60006116fc601383611297565b9150611707826116c6565b602082019050919050565b6000602082019050818103600083015261172b816116ef565b9050919050565b600061173d82610f62565b91507fffffffffffffffffffffffffffffffffffffffffffffffffffffffffffffffff820361176f5761176e611458565b5b600182019050919050565b7f416c7265616479206d6174636865640000000000000000000000000000000000600082015250565b60006117b0600f83611297565b91506117bb8261177a565b602082019050919050565b600060208201905081810360008301526117df816117a3565b905091905056fea2646970667358221220ab2a185443fdcf390abab67e066b1241dd0a94929a8526bee011717eba0163f864736f6c63430008140033",
  "linkReferences": {},
  "deployedLinkReferences": {}
}