{
  "_format": "hh-sol-artifact-1",
  "contractName": "BantABroNFT",
  "sourceName": "contracts/BantABroNFT.sol",
  "abi": [
    {
      "inputs": [],
      "stateMutability": "nonpayable",
      "type": "constructor"
    },
    {
      "inputs": [
        {
          "internalType": "address",
          "name": "sender",
          "type": "address"
        },
        {
          "internalType": "uint256",
          "name": "tokenId",
          "type": "uint256"
        },
        {
          "internalType": "address",
          "name": "owner",
          "type": "address"
        }
      ],
      "name": "ERC721IncorrectOwner",
      "type": "error"
    },
    {
      "inputs": [
        {
          "internalType": "address",
          "name": "operator",
          "type": "address"
        },
        {
          "internalType": "uint256",
          "name": "tokenId",
          "type": "uint256"
        }
      ],
      "name": "ERC721InsufficientApproval",
      "type": "error"
    },
    {
      "inputs": [
        {
          "internalType": "address",
          "name": "approver",
          "type": "address"
        }
      ],
      "name": "ERC721InvalidApprover",
      "type": "error"
    },
    {
      "inputs": [
        {
          "internalType": "address",
          "name": "operator",
          "type": "address"
        }
      ],
      "name": "ERC721InvalidOperator",
      "type": "error"
    },
    {
      "inputs": [
        {
          "internalType": "address",
          "name": "owner",
          "type": "address"
        }
      ],
      "name": "ERC721InvalidOwner",
      "type": "error"
    },
    {
      "inputs": [
        {
          "internalType": "address",
          "name": "receiver",
          "type": "address"
        }
      ],
      "name": "ERC721InvalidReceiver",
      "type": "error"
    },
    {
      "inputs": [
        {
          "internalType": "address",
          "name": "sender",
          "type": "address"
        }
      ],
      "name": "ERC721InvalidSender",
      "type": "error"
    },
    {
      "inputs": [
        {
          "internalType": "uint256",
          "name": "tokenId",
          "type": "uint256"
        }
      ],
      "name": "ERC721NonexistentToken",
      "type": "error"
    },
    {
      "inputs": [
        {
          "internalType": "address",
          "name": "owner",
          "type": "address"
        }
      ],
      "name": "OwnableInvalidOwner",
      "type": "error"
    },
    {
      "inputs": [
        {
          "internalType": "address",
          "name": "account",
          "type": "address"
        }
      ],
      "name": "OwnableUnauthorizedAccount",
      "type": "error"
    },
    {
      "anonymous": false,
      "inputs": [
        {
          "indexed": true,
          "internalType": "address",
          "name": "owner",
          "type": "address"
        },
        {
          "indexed": true,
          "internalType": "address",
          "name": "approved",
          "type": "address"
        },
        {
          "indexed": true,
          "internalType": "uint256",
          "name": "tokenId",
          "type": "uint256"
        }
      ],
      "name": "Approval",
      "type": "event"
    },
    {
      "anonymous": false,
      "inputs": [
        {
          "indexed": true,
          "internalType": "address",
          "name": "owner",
          "type": "address"
        },
        {
          "indexed": true,
          "internalType": "address",
          "name": "operator",
          "type": "address"
        },
        {
          "indexed": false,
          "internalType": "bool",
          "name": "approved",
          "type": "bool"
        }
      ],
      "name": "ApprovalForAll",
      "type": "event"
    },
    {
      "anonymous": false,
      "inputs": [
        {
          "indexed": false,
          "internalType": "uint256",
          "name": "_fromTokenId",
          "type": "uint256"
        },
        {
          "indexed": false,
          "internalType": "uint256",
          "name": "_toTokenId",
          "type": "uint256"
        }
      ],
      "name": "BatchMetadataUpdate",
      "type": "event"
    },
    {
      "anonymous": false,
      "inputs": [
        {
          "indexed": false,
          "internalType": "uint256",
          "name": "_tokenId",
          "type": "uint256"
        }
      ],
      "name": "MetadataUpdate",
      "type": "event"
    },
    {
      "anonymous": false,
      "inputs": [
        {
          "indexed": true,
          "internalType": "address",
          "name": "previousOwner",
          "type": "address"
        },
        {
          "indexed": true,
          "internalType": "address",
          "name": "newOwner",
          "type": "address"
        }
      ],
      "name": "OwnershipTransferred",
      "type": "event"
    },
    {
      "anonymous": false,
      "inputs": [
        {
          "indexed": true,
          "internalType": "address",
          "name": "from",
          "type": "address"
        },
        {
          "indexed": true,
          "internalType": "address",
          "name": "to",
          "type": "address"
        },
        {
          "indexed": true,
          "internalType": "uint256",
          "name": "tokenId",
          "type": "uint256"
        }
      ],
      "name": "Transfer",
      "type": "event"
    },
    {
      "inputs": [
        {
          "internalType": "address",
          "name": "to",
          "type": "address"
        },
        {
          "internalType": "uint256",
          "name": "tokenId",
          "type": "uint256"
        }
      ],
      "name": "approve",
      "outputs": [],
      "stateMutability": "nonpayable",
      "type": "function"
    },
    {
      "inputs": [
        {
          "internalType": "address",
          "name": "owner",
          "type": "address"
        }
      ],
      "name": "balanceOf",
      "outputs": [
        {
          "internalType": "uint256",
          "name": "",
          "type": "uint256"
        }
      ],
      "stateMutability": "view",
      "type": "function"
    },
    {
      "inputs": [
        {
          "internalType": "uint256",
          "name": "tokenId",
          "type": "uint256"
        }
      ],
      "name": "getApproved",
      "outputs": [
        {
          "internalType": "address",
          "name": "",
          "type": "address"
        }
      ],
      "stateMutability": "view",
      "type": "function"
    },
    {
      "inputs": [
        {
          "internalType": "address",
          "name": "owner",
          "type": "address"
        },
        {
          "internalType": "address",
          "name": "operator",
          "type": "address"
        }
      ],
      "name": "isApprovedForAll",
      "outputs": [
        {
          "internalType": "bool",
          "name": "",
          "type": "bool"
        }
      ],
      "stateMutability": "view",
      "type": "function"
    },
    {
      "inputs": [
        {
          "internalType": "address",
          "name": "to",
          "type": "address"
        },
        {
          "internalType": "string",
          "name": "tokenURI",
          "type": "string"
        }
      ],
      "name": "mintTo",
      "outputs": [
        {
          "internalType": "uint256",
          "name": "",
          "type": "uint256"
        }
      ],
      "stateMutability": "nonpayable",
      "type": "function"
    },
    {
      "inputs": [],
      "name": "name",
      "outputs": [
        {
          "internalType": "string",
          "name": "",
          "type": "string"
        }
      ],
      "stateMutability": "view",
      "type": "function"
    },
    {
      "inputs": [],
      "name": "nextId",
      "outputs": [
        {
          "internalType": "uint256",
          "name": "",
          "type": "uint256"
        }
      ],
      "stateMutability": "view",
      "type": "function"
    },
    {
      "inputs": [],
      "name": "owner",
      "outputs": [
        {
          "internalType": "address",
          "name": "",
          "type": "address"
        }
      ],
      "stateMutability": "view",
      "type": "function"
    },
    {
      "inputs": [
        {
          "internalType": "uint256",
          "name": "tokenId",
          "type": "uint256"
        }
      ],
      "name": "ownerOf",
      "outputs": [
        {
          "internalType": "address",
          "name": "",
          "type": "address"
        }
      ],
      "stateMutability": "view",
      "type": "function"
    },
    {
      "inputs": [],
      "name": "renounceOwnership",
      "outputs": [],
      "stateMutability": "nonpayable",
      "type": "function"
    },
    {
      "inputs": [
        {
          "internalType": "address",
          "name": "from",
          "type": "address"
        },
        {
          "internalType": "address",
          "name": "to",
          "type": "address"
        },
        {
          "internalType": "uint256",
          "name": "tokenId",
          "type": "uint256"
        }
      ],
      "name": "safeTransferFrom",
      "outputs": [],
      "stateMutability": "nonpayable",
      "type": "function"
    },
    {
      "inputs": [
        {
          "internalType": "address",
          "name": "from",
          "type": "address"
        },
        {
          "internalType": "address",
          "name": "to",
          "type": "address"
        },
        {
          "internalType": "uint256",
          "name": "tokenId",
          "type": "uint256"
        },
        {
          "internalType": "bytes",
          "name": "data",
          "type": "bytes"
        }
      ],
      "name": "safeTransferFrom",
      "outputs": [],
      "stateMutability": "nonpayable",
      "type": "function"
    },
    {
      "inputs": [
        {
          "internalType": "address",
          "name": "operator",
          "type": "address"
        },
        {
          "internalType": "bool",
          "name": "approved",
          "type": "bool"
        }
      ],
      "name": "setApprovalForAll",
      "outputs": [],
      "stateMutability": "nonpayable",
      "type": "function"
    },
    {
      "inputs": [
        {
          "internalType": "bytes4",
          "name": "interfaceId",
          "type": "bytes4"
        }
      ],
      "name": "supportsInterface",
      "outputs": [
        {
          "internalType": "bool",
          "name": "",
          "type": "bool"
        }
      ],
      "stateMutability": "view",
      "type": "function"
    },
    {
      "inputs": [],
      "name": "symbol",
      "outputs": [
        {
          "internalType": "string",
          "name": "",
          "type": "string"
        }
      ],
      "stateMutability": "view",
      "type": "function"
    },
    {
      "inputs": [
        {
          "internalType": "uint256",
          "name": "tokenId",
          "type": "uint256"
        }
      ],
      "name": "tokenURI",
      "outputs": [
        {
          "internalType": "string",
          "name": "",
          "type": "string"
        }
      ],
      "stateMutability": "view",
      "type": "function"
    },
    {
      "inputs": [
        {
          "internalType": "address",
          "name": "from",
          "type": "address"
        },
        {
          "internalType": "address",
          "name": "to",
          "type": "address"
        },
        {
          "internalType": "uint256",
          "name": "tokenId",
          "type": "uint256"
        }
      ],
      "name": "transferFrom",
      "outputs": [],
      "stateMutability": "nonpayable",
      "type": "function"
    },
    {
      "inputs": [
        {
          "internalType": "address",
          "name": "newOwner",
          "type": "address"
        }
      ],
      "name": "transferOwnership",
      "outputs": [],
      "stateMutability": "nonpayable",
      "type": "function"
    }
  ],
  "bytecode": "0x60806040523480156200001157600080fd5b50336040518060400160405280600a81526020017f42616e742d412d42726f000000000000000000000000000000000000000000008152506040518060400160405280600381526020017f4241420000000000000000000000000000000000000000000000000000000000815250816000908162000090919062000472565b508060019081620000a2919062000472565b505050600073ffffffffffffffffffffffffffffffffffffffff168173ffffffffffffffffffffffffffffffffffffffff16036200011a5760006040517f1e4fbdf70000000000000000000000000000000000000000000000000000000081526004016200011191906200059e565b60405180910390fd5b6200012b816200013260201b60201c565b50620005bb565b6000600760009054906101000a900473ffffffffffffffffffffffffffffffffffffffff16905081600760006101000a81548173ffffffffffffffffffffffffffffffffffffffff021916908373ffffffffffffffffffffffffffffffffffffffff1602179055508173ffffffffffffffffffffffffffffffffffffffff168173ffffffffffffffffffffffffffffffffffffffff167f8be0079c531659141344cd1fd0a4f28419497f9722a3daafe3b4186f6b6457e060405160405180910390a35050565b600081519050919050565b7f4e487b7100000000000000000000000000000000000000000000000000000000600052604160045260246000fd5b7f4e487b7100000000000000000000000000000000000000000000000000000000600052602260045260246000fd5b600060028204905060018216806200027a57607f821691505b60208210810362000290576200028f62000232565b5b50919050565b60008190508160005260206000209050919050565b60006020601f8301049050919050565b600082821b905092915050565b600060088302620002fa7fffffffffffffffffffffffffffffffffffffffffffffffffffffffffffffffff82620002bb565b620003068683620002bb565b95508019841693508086168417925050509392505050565b6000819050919050565b6000819050919050565b6000620003536200034d62000347846200031e565b62000328565b6200031e565b9050919050565b6000819050919050565b6200036f8362000332565b620003876200037e826200035a565b848454620002c8565b825550505050565b600090565b6200039e6200038f565b620003ab81848462000364565b505050565b5b81811015620003d357620003c760008262000394565b600181019050620003b1565b5050565b601f8211156200042257620003ec8162000296565b620003f784620002ab565b8101602085101562000407578190505b6200041f6200041685620002ab565b830182620003b0565b50505b505050565b600082821c905092915050565b6000620004476000198460080262000427565b1980831691505092915050565b600062000462838362000434565b9150826002028217905092915050565b6200047d82620001f8565b67ffffffffffffffff81111562000499576200049862000203565b5b620004a5825462000261565b620004b2828285620003d7565b600060209050601f831160018114620004ea5760008415620004d5578287015190505b620004e1858262000454565b86555062000551565b601f198416620004fa8662000296565b60005b828110156200052457848901518255600182019150602085019450602081019050620004fd565b8683101562000544578489015162000540601f89168262000434565b8355505b6001600288020188555050505b505050505050565b600073ffffffffffffffffffffffffffffffffffffffff82169050919050565b6000620005868262000559565b9050919050565b620005988162000579565b82525050565b6000602082019050620005b560008301846200058d565b92915050565b6126b880620005cb6000396000f3fe608060405234801561001057600080fd5b50600436106101155760003560e01c806370a08231116100a2578063a22cb46511610071578063a22cb465146102e0578063b88d4fde146102fc578063c87b56dd14610318578063e985e9c514610348578063f2fde38b1461037857610115565b806370a082311461026a578063715018a61461029a5780638da5cb5b146102a457806395d89b41146102c257610115565b8063095ea7b3116100e9578063095ea7b3146101c857806323b872dd146101e457806342842e0e1461020057806361b8ce8c1461021c5780636352211e1461023a57610115565b806275a3171461011a57806301ffc9a71461014a57806306fdde031461017a578063081812fc14610198575b600080fd5b610134600480360381019061012f9190611c5c565b610394565b6040516101419190611cd1565b60405180910390f35b610164600480360381019061015f9190611d44565b6103e2565b6040516101719190611d8c565b60405180910390f35b610182610443565b60405161018f9190611e26565b60405180910390f35b6101b260048036038101906101ad9190611e74565b6104d5565b6040516101bf9190611eb0565b60405180910390f35b6101e260048036038101906101dd9190611ecb565b6104f1565b005b6101fe60048036038101906101f99190611f0b565b610507565b005b61021a60048036038101906102159190611f0b565b610609565b005b610224610629565b6040516102319190611cd1565b60405180910390f35b610254600480360381019061024f9190611e74565b61062f565b6040516102619190611eb0565b60405180910390f35b610284600480360381019061027f9190611f5e565b610641565b6040516102919190611cd1565b60405180910390f35b6102a26106fb565b005b6102ac61070f565b6040516102b99190611eb0565b60405180910390f35b6102ca610739565b6040516102d79190611e26565b60405180910390f35b6102fa60048036038101906102f59190611fb7565b6107cb565b005b61031660048036038101906103119190612098565b6107e1565b005b610332600480360381019061032d9190611e74565b610806565b60405161033f9190611e26565b60405180910390f35b610362600480360381019061035d919061211b565b610919565b60405161036f9190611d8c565b60405180910390f35b610392600480360381019061038d9190611f5e565b6109ad565b005b600061039e610a33565b6000600860008154809291906103b39061218a565b9190505590506103c38482610aba565b6000835111156103d8576103d78184610ad8565b5b8091505092915050565b6000634906490660e01b7bffffffffffffffffffffffffffffffffffffffffffffffffffffffff1916827bffffffffffffffffffffffffffffffffffffffffffffffffffffffff1916148061043c575061043b82610b34565b5b9050919050565b60606000805461045290612201565b80601f016020809104026020016040519081016040528092919081815260200182805461047e90612201565b80156104cb5780601f106104a0576101008083540402835291602001916104cb565b820191906000526020600020905b8154815290600101906020018083116104ae57829003601f168201915b5050505050905090565b60006104e082610c16565b506104ea82610c9e565b9050919050565b61050382826104fe610cdb565b610ce3565b5050565b600073ffffffffffffffffffffffffffffffffffffffff168273ffffffffffffffffffffffffffffffffffffffff16036105795760006040517f64a0ae920000000000000000000000000000000000000000000000000000000081526004016105709190611eb0565b60405180910390fd5b600061058d8383610588610cdb565b610cf5565b90508373ffffffffffffffffffffffffffffffffffffffff168173ffffffffffffffffffffffffffffffffffffffff1614610603578382826040517f64283d7b0000000000000000000000000000000000000000000000000000000081526004016105fa93929190612232565b60405180910390fd5b50505050565b610624838383604051806020016040528060008152506107e1565b505050565b60085481565b600061063a82610c16565b9050919050565b60008073ffffffffffffffffffffffffffffffffffffffff168273ffffffffffffffffffffffffffffffffffffffff16036106b45760006040517f89c62b640000000000000000000000000000000000000000000000000000000081526004016106ab9190611eb0565b60405180910390fd5b600360008373ffffffffffffffffffffffffffffffffffffffff1673ffffffffffffffffffffffffffffffffffffffff168152602001908152602001600020549050919050565b610703610a33565b61070d6000610f0f565b565b6000600760009054906101000a900473ffffffffffffffffffffffffffffffffffffffff16905090565b60606001805461074890612201565b80601f016020809104026020016040519081016040528092919081815260200182805461077490612201565b80156107c15780601f10610796576101008083540402835291602001916107c1565b820191906000526020600020905b8154815290600101906020018083116107a457829003601f168201915b5050505050905090565b6107dd6107d6610cdb565b8383610fd5565b5050565b6107ec848484610507565b6108006107f7610cdb565b85858585611144565b50505050565b606061081182610c16565b50600060066000848152602001908152602001600020805461083290612201565b80601f016020809104026020016040519081016040528092919081815260200182805461085e90612201565b80156108ab5780601f10610880576101008083540402835291602001916108ab565b820191906000526020600020905b81548152906001019060200180831161088e57829003601f168201915b5050505050905060006108bc6112f5565b905060008151036108d1578192505050610914565b6000825111156109065780826040516020016108ee9291906122a5565b60405160208183030381529060405292505050610914565b61090f8461130c565b925050505b919050565b6000600560008473ffffffffffffffffffffffffffffffffffffffff1673ffffffffffffffffffffffffffffffffffffffff16815260200190815260200160002060008373ffffffffffffffffffffffffffffffffffffffff1673ffffffffffffffffffffffffffffffffffffffff16815260200190815260200160002060009054906101000a900460ff16905092915050565b6109b5610a33565b600073ffffffffffffffffffffffffffffffffffffffff168173ffffffffffffffffffffffffffffffffffffffff1603610a275760006040517f1e4fbdf7000000000000000000000000000000000000000000000000000000008152600401610a1e9190611eb0565b60405180910390fd5b610a3081610f0f565b50565b610a3b610cdb565b73ffffffffffffffffffffffffffffffffffffffff16610a5961070f565b73ffffffffffffffffffffffffffffffffffffffff1614610ab857610a7c610cdb565b6040517f118cdaa7000000000000000000000000000000000000000000000000000000008152600401610aaf9190611eb0565b60405180910390fd5b565b610ad4828260405180602001604052806000815250611375565b5050565b80600660008481526020019081526020016000209081610af89190612475565b507ff8e1a15aba9398e019f0b49df1a4fde98ee17ae345cb5f6b5e2c27f5033e8ce782604051610b289190611cd1565b60405180910390a15050565b60007f80ac58cd000000000000000000000000000000000000000000000000000000007bffffffffffffffffffffffffffffffffffffffffffffffffffffffff1916827bffffffffffffffffffffffffffffffffffffffffffffffffffffffff19161480610bff57507f5b5e139f000000000000000000000000000000000000000000000000000000007bffffffffffffffffffffffffffffffffffffffffffffffffffffffff1916827bffffffffffffffffffffffffffffffffffffffffffffffffffffffff1916145b80610c0f5750610c0e82611399565b5b9050919050565b600080610c2283611403565b9050600073ffffffffffffffffffffffffffffffffffffffff168173ffffffffffffffffffffffffffffffffffffffff1603610c9557826040517f7e273289000000000000000000000000000000000000000000000000000000008152600401610c8c9190611cd1565b60405180910390fd5b80915050919050565b60006004600083815260200190815260200160002060009054906101000a900473ffffffffffffffffffffffffffffffffffffffff169050919050565b600033905090565b610cf08383836001611440565b505050565b600080610d0184611403565b9050600073ffffffffffffffffffffffffffffffffffffffff168373ffffffffffffffffffffffffffffffffffffffff1614610d4357610d42818486611605565b5b600073ffffffffffffffffffffffffffffffffffffffff168173ffffffffffffffffffffffffffffffffffffffff1614610dd457610d85600085600080611440565b6001600360008373ffffffffffffffffffffffffffffffffffffffff1673ffffffffffffffffffffffffffffffffffffffff168152602001908152602001600020600082825403925050819055505b600073ffffffffffffffffffffffffffffffffffffffff168573ffffffffffffffffffffffffffffffffffffffff1614610e57576001600360008773ffffffffffffffffffffffffffffffffffffffff1673ffffffffffffffffffffffffffffffffffffffff168152602001908152602001600020600082825401925050819055505b846002600086815260200190815260200160002060006101000a81548173ffffffffffffffffffffffffffffffffffffffff021916908373ffffffffffffffffffffffffffffffffffffffff160217905550838573ffffffffffffffffffffffffffffffffffffffff168273ffffffffffffffffffffffffffffffffffffffff167fddf252ad1be2c89b69c2b068fc378daa952ba7f163c4a11628f55a4df523b3ef60405160405180910390a4809150509392505050565b6000600760009054906101000a900473ffffffffffffffffffffffffffffffffffffffff16905081600760006101000a81548173ffffffffffffffffffffffffffffffffffffffff021916908373ffffffffffffffffffffffffffffffffffffffff1602179055508173ffffffffffffffffffffffffffffffffffffffff168173ffffffffffffffffffffffffffffffffffffffff167f8be0079c531659141344cd1fd0a4f28419497f9722a3daafe3b4186f6b6457e060405160405180910390a35050565b600073ffffffffffffffffffffffffffffffffffffffff168273ffffffffffffffffffffffffffffffffffffffff160361104657816040517f5b08ba1800000000000000000000000000000000000000000000000000000000815260040161103d9190611eb0565b60405180910390fd5b80600560008573ffffffffffffffffffffffffffffffffffffffff1673ffffffffffffffffffffffffffffffffffffffff16815260200190815260200160002060008473ffffffffffffffffffffffffffffffffffffffff1673ffffffffffffffffffffffffffffffffffffffff16815260200190815260200160002060006101000a81548160ff0219169083151502179055508173ffffffffffffffffffffffffffffffffffffffff168373ffffffffffffffffffffffffffffffffffffffff167f17307eab39ab6107e8899845ad3d59bd9653f200f220920489ca2b5937696c31836040516111379190611d8c565b60405180910390a3505050565b60008373ffffffffffffffffffffffffffffffffffffffff163b11156112ee578273ffffffffffffffffffffffffffffffffffffffff1663150b7a02868685856040518563ffffffff1660e01b81526004016111a3949392919061259c565b6020604051808303816000875af19250505080156111df57506040513d601f19601f820116820180604052508101906111dc91906125fd565b60015b611263573d806000811461120f576040519150601f19603f3d011682016040523d82523d6000602084013e611214565b606091505b50600081510361125b57836040517f64a0ae920000000000000000000000000000000000000000000000000000000081526004016112529190611eb0565b60405180910390fd5b805160208201fd5b63150b7a0260e01b7bffffffffffffffffffffffffffffffffffffffffffffffffffffffff1916817bffffffffffffffffffffffffffffffffffffffffffffffffffffffff1916146112ec57836040517f64a0ae920000000000000000000000000000000000000000000000000000000081526004016112e39190611eb0565b60405180910390fd5b505b5050505050565b606060405180602001604052806000815250905090565b606061131782610c16565b5060006113226112f5565b90506000815111611342576040518060200160405280600081525061136d565b8061134c846116c9565b60405160200161135d9291906122a5565b6040516020818303038152906040525b915050919050565b61137f8383611797565b61139461138a610cdb565b6000858585611144565b505050565b60007f01ffc9a7000000000000000000000000000000000000000000000000000000007bffffffffffffffffffffffffffffffffffffffffffffffffffffffff1916827bffffffffffffffffffffffffffffffffffffffffffffffffffffffff1916149050919050565b60006002600083815260200190815260200160002060009054906101000a900473ffffffffffffffffffffffffffffffffffffffff169050919050565b80806114795750600073ffffffffffffffffffffffffffffffffffffffff168273ffffffffffffffffffffffffffffffffffffffff1614155b156115ad57600061148984610c16565b9050600073ffffffffffffffffffffffffffffffffffffffff168373ffffffffffffffffffffffffffffffffffffffff16141580156114f457508273ffffffffffffffffffffffffffffffffffffffff168173ffffffffffffffffffffffffffffffffffffffff1614155b801561150757506115058184610919565b155b1561154957826040517fa9fbf51f0000000000000000000000000000000000000000000000000000000081526004016115409190611eb0565b60405180910390fd5b81156115ab57838573ffffffffffffffffffffffffffffffffffffffff168273ffffffffffffffffffffffffffffffffffffffff167f8c5be1e5ebec7d5bd14f71427d1e84f3dd0314c0f7b2291e5b200ac8c7c3b92560405160405180910390a45b505b836004600085815260200190815260200160002060006101000a81548173ffffffffffffffffffffffffffffffffffffffff021916908373ffffffffffffffffffffffffffffffffffffffff16021790555050505050565b611610838383611890565b6116c457600073ffffffffffffffffffffffffffffffffffffffff168373ffffffffffffffffffffffffffffffffffffffff160361168557806040517f7e27328900000000000000000000000000000000000000000000000000000000815260040161167c9190611cd1565b60405180910390fd5b81816040517f177e802f0000000000000000000000000000000000000000000000000000000081526004016116bb92919061262a565b60405180910390fd5b505050565b6060600060016116d884611951565b01905060008167ffffffffffffffff8111156116f7576116f6611b31565b5b6040519080825280601f01601f1916602001820160405280156117295781602001600182028036833780820191505090505b509050600082602083010190505b60011561178c578080600190039150507f3031323334353637383961626364656600000000000000000000000000000000600a86061a8153600a85816117805761177f612653565b5b04945060008503611737575b819350505050919050565b600073ffffffffffffffffffffffffffffffffffffffff168273ffffffffffffffffffffffffffffffffffffffff16036118095760006040517f64a0ae920000000000000000000000000000000000000000000000000000000081526004016118009190611eb0565b60405180910390fd5b600061181783836000610cf5565b9050600073ffffffffffffffffffffffffffffffffffffffff168173ffffffffffffffffffffffffffffffffffffffff161461188b5760006040517f73c6ac6e0000000000000000000000000000000000000000000000000000000081526004016118829190611eb0565b60405180910390fd5b505050565b60008073ffffffffffffffffffffffffffffffffffffffff168373ffffffffffffffffffffffffffffffffffffffff161415801561194857508273ffffffffffffffffffffffffffffffffffffffff168473ffffffffffffffffffffffffffffffffffffffff16148061190957506119088484610919565b5b8061194757508273ffffffffffffffffffffffffffffffffffffffff1661192f83610c9e565b73ffffffffffffffffffffffffffffffffffffffff16145b5b90509392505050565b600080600090507a184f03e93ff9f4daa797ed6e38ed64bf6a1f01000000000000000083106119af577a184f03e93ff9f4daa797ed6e38ed64bf6a1f01000000000000000083816119a5576119a4612653565b5b0492506040810190505b6d04ee2d6d415b85acef810000000083106119ec576d04ee2d6d415b85acef810000000083816119e2576119e1612653565b5b0492506020810190505b662386f26fc100008310611a1b57662386f26fc100008381611a1157611a10612653565b5b0492506010810190505b6305f5e1008310611a44576305f5e1008381611a3a57611a39612653565b5b0492506008810190505b6127108310611a69576127108381611a5f57611a5e612653565b5b0492506004810190505b60648310611a8c5760648381611a8257611a81612653565b5b0492506002810190505b600a8310611a9b576001810190505b80915050919050565b6000604051905090565b600080fd5b600080fd5b600073ffffffffffffffffffffffffffffffffffffffff82169050919050565b6000611ae382611ab8565b9050919050565b611af381611ad8565b8114611afe57600080fd5b50565b600081359050611b1081611aea565b92915050565b600080fd5b600080fd5b6000601f19601f8301169050919050565b7f4e487b7100000000000000000000000000000000000000000000000000000000600052604160045260246000fd5b611b6982611b20565b810181811067ffffffffffffffff82111715611b8857611b87611b31565b5b80604052505050565b6000611b9b611aa4565b9050611ba78282611b60565b919050565b600067ffffffffffffffff821115611bc757611bc6611b31565b5b611bd082611b20565b9050602081019050919050565b82818337600083830152505050565b6000611bff611bfa84611bac565b611b91565b905082815260208101848484011115611c1b57611c1a611b1b565b5b611c26848285611bdd565b509392505050565b600082601f830112611c4357611c42611b16565b5b8135611c53848260208601611bec565b91505092915050565b60008060408385031215611c7357611c72611aae565b5b6000611c8185828601611b01565b925050602083013567ffffffffffffffff811115611ca257611ca1611ab3565b5b611cae85828601611c2e565b9150509250929050565b6000819050919050565b611ccb81611cb8565b82525050565b6000602082019050611ce66000830184611cc2565b92915050565b60007fffffffff0000000000000000000000000000000000000000000000000000000082169050919050565b611d2181611cec565b8114611d2c57600080fd5b50565b600081359050611d3e81611d18565b92915050565b600060208284031215611d5a57611d59611aae565b5b6000611d6884828501611d2f565b91505092915050565b60008115159050919050565b611d8681611d71565b82525050565b6000602082019050611da16000830184611d7d565b92915050565b600081519050919050565b600082825260208201905092915050565b60005b83811015611de1578082015181840152602081019050611dc6565b60008484015250505050565b6000611df882611da7565b611e028185611db2565b9350611e12818560208601611dc3565b611e1b81611b20565b840191505092915050565b60006020820190508181036000830152611e408184611ded565b905092915050565b611e5181611cb8565b8114611e5c57600080fd5b50565b600081359050611e6e81611e48565b92915050565b600060208284031215611e8a57611e89611aae565b5b6000611e9884828501611e5f565b91505092915050565b611eaa81611ad8565b82525050565b6000602082019050611ec56000830184611ea1565b92915050565b60008060408385031215611ee257611ee1611aae565b5b6000611ef085828601611b01565b9250506020611f0185828601611e5f565b9150509250929050565b600080600060608486031215611f2457611f23611aae565b5b6000611f3286828701611b01565b9350506020611f4386828701611b01565b9250506040611f5486828701611e5f565b9150509250925092565b600060208284031215611f7457611f73611aae565b5b6000611f8284828501611b01565b91505092915050565b611f9481611d71565b8114611f9f57600080fd5b50565b600081359050611fb181611f8b565b92915050565b60008060408385031215611fce57611fcd611aae565b5b6000611fdc85828601611b01565b9250506020611fed85828601611fa2565b9150509250929050565b600067ffffffffffffffff82111561201257612011611b31565b5b61201b82611b20565b9050602081019050919050565b600061203b61203684611ff7565b611b91565b90508281526020810184848401111561205757612056611b1b565b5b612062848285611bdd565b509392505050565b600082601f83011261207f5761207e611b16565b5b813561208f848260208601612028565b91505092915050565b600080600080608085870312156120b2576120b1611aae565b5b60006120c087828801611b01565b94505060206120d187828801611b01565b93505060406120e287828801611e5f565b925050606085013567ffffffffffffffff81111561210357612102611ab3565b5b61210f8782880161206a565b91505092959194509250565b6000806040838503121561213257612131611aae565b5b600061214085828601611b01565b925050602061215185828601611b01565b9150509250929050565b7f4e487b7100000000000000000000000000000000000000000000000000000000600052601160045260246000fd5b600061219582611cb8565b91507fffffffffffffffffffffffffffffffffffffffffffffffffffffffffffffffff82036121c7576121c661215b565b5b600182019050919050565b7f4e487b7100000000000000000000000000000000000000000000000000000000600052602260045260246000fd5b6000600282049050600182168061221957607f821691505b60208210810361222c5761222b6121d2565b5b50919050565b60006060820190506122476000830186611ea1565b6122546020830185611cc2565b6122616040830184611ea1565b949350505050565b600081905092915050565b600061227f82611da7565b6122898185612269565b9350612299818560208601611dc3565b80840191505092915050565b60006122b18285612274565b91506122bd8284612274565b91508190509392505050565b60008190508160005260206000209050919050565b60006020601f8301049050919050565b600082821b905092915050565b60006008830261232b7fffffffffffffffffffffffffffffffffffffffffffffffffffffffffffffffff826122ee565b61233586836122ee565b95508019841693508086168417925050509392505050565b6000819050919050565b600061237261236d61236884611cb8565b61234d565b611cb8565b9050919050565b6000819050919050565b61238c83612357565b6123a061239882612379565b8484546122fb565b825550505050565b600090565b6123b56123a8565b6123c0818484612383565b505050565b5b818110156123e4576123d96000826123ad565b6001810190506123c6565b5050565b601f821115612429576123fa816122c9565b612403846122de565b81016020851015612412578190505b61242661241e856122de565b8301826123c5565b50505b505050565b600082821c905092915050565b600061244c6000198460080261242e565b1980831691505092915050565b6000612465838361243b565b9150826002028217905092915050565b61247e82611da7565b67ffffffffffffffff81111561249757612496611b31565b5b6124a18254612201565b6124ac8282856123e8565b600060209050601f8311600181146124df57600084156124cd578287015190505b6124d78582612459565b86555061253f565b601f1984166124ed866122c9565b60005b82811015612515578489015182556001820191506020850194506020810190506124f0565b86831015612532578489015161252e601f89168261243b565b8355505b6001600288020188555050505b505050505050565b600081519050919050565b600082825260208201905092915050565b600061256e82612547565b6125788185612552565b9350612588818560208601611dc3565b61259181611b20565b840191505092915050565b60006080820190506125b16000830187611ea1565b6125be6020830186611ea1565b6125cb6040830185611cc2565b81810360608301526125dd8184612563565b905095945050505050565b6000815190506125f781611d18565b92915050565b60006020828403121561261357612612611aae565b5b6000612621848285016125e8565b91505092915050565b600060408201905061263f6000830185611ea1565b61264c6020830184611cc2565b9392505050565b7f4e487b7100000000000000000000000000000000000000000000000000000000600052601260045260246000fdfea26469706673582212205286b091e48b343ce943699861875160a633ae38c11c50d1eaf9e80fcf4bf58864736f6c63430008140033",
  "linkReferences": {},
  "deployedLinkReferences": {}
}